{
  "contractName": "smalobox",
  "abi": [
    {
      "constant": true,
      "inputs": [],
      "name": "duration",
      "outputs": [
        {
          "name": "",
          "type": "uint256"
        }
      ],
      "payable": false,
      "stateMutability": "view",
      "type": "function"
    },
    {
      "constant": true,
      "inputs": [],
      "name": "index",
      "outputs": [
        {
          "name": "",
          "type": "uint256"
        }
      ],
      "payable": false,
      "stateMutability": "view",
      "type": "function"
    },
    {
      "constant": true,
      "inputs": [],
      "name": "renter",
      "outputs": [
        {
          "name": "",
          "type": "address"
        }
      ],
      "payable": false,
      "stateMutability": "view",
      "type": "function"
    },
    {
      "constant": true,
      "inputs": [],
      "name": "owner",
      "outputs": [
        {
          "name": "",
          "type": "address"
        }
      ],
      "payable": false,
      "stateMutability": "view",
      "type": "function"
    },
    {
      "constant": true,
      "inputs": [
        {
          "name": "",
          "type": "uint256"
        },
        {
          "name": "",
          "type": "address"
        }
      ],
      "name": "authorizedUsers",
      "outputs": [
        {
          "name": "",
          "type": "bool"
        }
      ],
      "payable": false,
      "stateMutability": "view",
      "type": "function"
    },
    {
      "constant": true,
      "inputs": [],
      "name": "endTimestamp",
      "outputs": [
        {
          "name": "",
          "type": "uint256"
        }
      ],
      "payable": false,
      "stateMutability": "view",
      "type": "function"
    },
    {
      "inputs": [],
      "payable": false,
      "stateMutability": "nonpayable",
      "type": "constructor"
    },
    {
      "anonymous": false,
      "inputs": [
        {
          "indexed": true,
          "name": "smartbox",
          "type": "address"
        },
        {
          "indexed": true,
          "name": "_from",
          "type": "address"
        },
        {
          "indexed": false,
          "name": "_value",
          "type": "uint256"
        },
        {
          "indexed": false,
          "name": "_index",
          "type": "uint256"
        }
      ],
      "name": "Rented",
      "type": "event"
    },
    {
      "anonymous": false,
      "inputs": [
        {
          "indexed": true,
          "name": "smartbox",
          "type": "address"
        },
        {
          "indexed": true,
          "name": "_from",
          "type": "address"
        }
      ],
      "name": "Opened",
      "type": "event"
    },
    {
      "anonymous": false,
      "inputs": [
        {
          "indexed": true,
          "name": "smartbox",
          "type": "address"
        },
        {
          "indexed": true,
          "name": "_from",
          "type": "address"
        }
      ],
      "name": "Closed",
      "type": "event"
    },
    {
      "anonymous": false,
      "inputs": [
        {
          "indexed": true,
          "name": "smartbox",
          "type": "address"
        },
        {
          "indexed": true,
          "name": "_from",
          "type": "address"
        }
      ],
      "name": "Returned",
      "type": "event"
    },
    {
      "anonymous": false,
      "inputs": [
        {
          "indexed": true,
          "name": "smartbox",
          "type": "address"
        },
        {
          "indexed": true,
          "name": "_from",
          "type": "address"
        }
      ],
      "name": "Authorized",
      "type": "event"
    },
    {
      "anonymous": false,
      "inputs": [
        {
          "indexed": true,
          "name": "smartbox",
          "type": "address"
        },
        {
          "indexed": true,
          "name": "_renter",
          "type": "address"
        },
        {
          "indexed": true,
          "name": "_rating",
          "type": "uint256"
        }
      ],
      "name": "Rated",
      "type": "event"
    },
    {
      "constant": false,
      "inputs": [],
      "name": "rent",
      "outputs": [],
      "payable": true,
      "stateMutability": "payable",
      "type": "function"
    },
    {
      "constant": false,
      "inputs": [],
      "name": "open",
      "outputs": [],
      "payable": false,
      "stateMutability": "nonpayable",
      "type": "function"
    },
    {
      "constant": false,
      "inputs": [],
      "name": "close",
      "outputs": [],
      "payable": false,
      "stateMutability": "nonpayable",
      "type": "function"
    },
    {
      "constant": false,
      "inputs": [],
      "name": "withdraw",
      "outputs": [],
      "payable": false,
      "stateMutability": "nonpayable",
      "type": "function"
    },
    {
      "constant": true,
      "inputs": [
        {
          "name": "account",
          "type": "address"
        }
      ],
      "name": "isUserAuthorized",
      "outputs": [
        {
          "name": "",
          "type": "bool"
        }
      ],
      "payable": false,
      "stateMutability": "view",
      "type": "function"
    },
    {
      "constant": false,
      "inputs": [],
      "name": "returnBox",
      "outputs": [],
      "payable": false,
      "stateMutability": "nonpayable",
      "type": "function"
    },
    {
      "constant": false,
      "inputs": [
        {
          "name": "account",
          "type": "address"
        }
      ],
      "name": "authorizeUser",
      "outputs": [],
      "payable": false,
      "stateMutability": "nonpayable",
      "type": "function"
    },
    {
      "constant": false,
      "inputs": [
        {
          "name": "_rating",
          "type": "uint16"
        },
        {
          "name": "_index",
          "type": "uint256"
        }
      ],
      "name": "rate",
      "outputs": [],
      "payable": false,
      "stateMutability": "nonpayable",
      "type": "function"
    }
  ],
  "bytecode": "0x606060405266038d7ea4c68000600655341561001a57600080fd5b33600260006101000a81548173ffffffffffffffffffffffffffffffffffffffff021916908373ffffffffffffffffffffffffffffffffffffffff160217905550610c118061006a6000396000f3006060604052600436106100d0576000357c0100000000000000000000000000000000000000000000000000000000900463ffffffff1680630fb5a6b4146100d55780631c9a5ddf146100fe57806323c2460d146101135780632986c0e5146101435780632e88ab0b1461016c5780633ccfd60b146101c157806343d726d6146101d657806367c2a360146101eb57806382996d9f14610224578063894e5f2d1461022e5780638da5cb5b1461027f578063a5663a9f146102d4578063a85adeab1461032e578063fcfff16f14610357575b600080fd5b34156100e057600080fd5b6100e861036c565b6040518082815260200191505060405180910390f35b341561010957600080fd5b610111610372565b005b341561011e57600080fd5b610141600480803561ffff16906020019091908035906020019091905050610500565b005b341561014e57600080fd5b6101566105cb565b6040518082815260200191505060405180910390f35b341561017757600080fd5b61017f6105d1565b604051808273ffffffffffffffffffffffffffffffffffffffff1673ffffffffffffffffffffffffffffffffffffffff16815260200191505060405180910390f35b34156101cc57600080fd5b6101d46105f7565b005b34156101e157600080fd5b6101e96106f4565b005b34156101f657600080fd5b610222600480803573ffffffffffffffffffffffffffffffffffffffff169060200190919050506107c1565b005b61022c6108e4565b005b341561023957600080fd5b610265600480803573ffffffffffffffffffffffffffffffffffffffff16906020019091905050610a55565b604051808215151515815260200191505060405180910390f35b341561028a57600080fd5b610292610abd565b604051808273ffffffffffffffffffffffffffffffffffffffff1673ffffffffffffffffffffffffffffffffffffffff16815260200191505060405180910390f35b34156102df57600080fd5b610314600480803590602001909190803573ffffffffffffffffffffffffffffffffffffffff16906020019091905050610ae3565b604051808215151515815260200191505060405180910390f35b341561033957600080fd5b610341610b12565b6040518082815260200191505060405180910390f35b341561036257600080fd5b61036a610b18565b005b60055481565b60011515600080600154815260200190815260200160002060003373ffffffffffffffffffffffffffffffffffffffff1673ffffffffffffffffffffffffffffffffffffffff16815260200190815260200160002060009054906101000a900460ff16151514806104305750600260009054906101000a900473ffffffffffffffffffffffffffffffffffffffff1673ffffffffffffffffffffffffffffffffffffffff163373ffffffffffffffffffffffffffffffffffffffff16145b151561043b57600080fd5b600080600154815260200190815260200160002060003373ffffffffffffffffffffffffffffffffffffffff1673ffffffffffffffffffffffffffffffffffffffff16815260200190815260200160002060006101000a81549060ff021916905560006004819055503373ffffffffffffffffffffffffffffffffffffffff163073ffffffffffffffffffffffffffffffffffffffff167f68dad5ac279e871c27daa590e87ab6187ea8f679f17ad812e32bdc4b0d0d241e60405160405180910390a3565b60008082815260200190815260200160002060003373ffffffffffffffffffffffffffffffffffffffff1673ffffffffffffffffffffffffffffffffffffffff16815260200190815260200160002060009054906101000a900460ff16151561056857600080fd5b8161ffff163373ffffffffffffffffffffffffffffffffffffffff163073ffffffffffffffffffffffffffffffffffffffff167f4337d3daab37a21212068f3db62d64166ace6147b245f81ae6cd2b54c3e5631c60405160405180910390a45050565b60015481565b600360009054906101000a900473ffffffffffffffffffffffffffffffffffffffff1681565b3373ffffffffffffffffffffffffffffffffffffffff16600260009054906101000a900473ffffffffffffffffffffffffffffffffffffffff1673ffffffffffffffffffffffffffffffffffffffff1614151561065357600080fd5b60003073ffffffffffffffffffffffffffffffffffffffff163111151561067957600080fd5b600260009054906101000a900473ffffffffffffffffffffffffffffffffffffffff1673ffffffffffffffffffffffffffffffffffffffff166108fc3073ffffffffffffffffffffffffffffffffffffffff16319081150290604051600060405180830381858888f1935050505015156106f257600080fd5b565b60011515600080600154815260200190815260200160002060003373ffffffffffffffffffffffffffffffffffffffff1673ffffffffffffffffffffffffffffffffffffffff16815260200190815260200160002060009054906101000a900460ff16151514151561076557600080fd5b3373ffffffffffffffffffffffffffffffffffffffff163073ffffffffffffffffffffffffffffffffffffffff167f7500439a053b563728632762e47d0425a25632f01409573c7104a5787b29f9cf60405160405180910390a3565b3373ffffffffffffffffffffffffffffffffffffffff16600360009054906101000a900473ffffffffffffffffffffffffffffffffffffffff1673ffffffffffffffffffffffffffffffffffffffff1614151561081d57600080fd5b6001600080600154815260200190815260200160002060008373ffffffffffffffffffffffffffffffffffffffff1673ffffffffffffffffffffffffffffffffffffffff16815260200190815260200160002060006101000a81548160ff0219169083151502179055508073ffffffffffffffffffffffffffffffffffffffff163073ffffffffffffffffffffffffffffffffffffffff167ff5a7f4fb8a92356e8c8c4ae7ac3589908381450500a7e2fd08c95600021ee88960405160405180910390a350565b600454421115156108f457600080fd5b600654341015151561090557600080fd5b6006543481151561091257fe5b04600581905550603c600554024201600481905550600180600082825401925050819055506001600080600154815260200190815260200160002060003373ffffffffffffffffffffffffffffffffffffffff1673ffffffffffffffffffffffffffffffffffffffff16815260200190815260200160002060006101000a81548160ff02191690831515021790555033600360006101000a81548173ffffffffffffffffffffffffffffffffffffffff021916908373ffffffffffffffffffffffffffffffffffffffff1602179055503373ffffffffffffffffffffffffffffffffffffffff163073ffffffffffffffffffffffffffffffffffffffff167f8c279fcdedea8421c9640eadaf71292e735021e384633c1fb44d852ced539e5c600554600154604051808381526020018281526020019250505060405180910390a3565b6000806000600154815260200190815260200160002060008373ffffffffffffffffffffffffffffffffffffffff1673ffffffffffffffffffffffffffffffffffffffff16815260200190815260200160002060009054906101000a900460ff169050919050565b600260009054906101000a900473ffffffffffffffffffffffffffffffffffffffff1681565b60006020528160005260406000206020528060005260406000206000915091509054906101000a900460ff1681565b60045481565b60011515600080600154815260200190815260200160002060003373ffffffffffffffffffffffffffffffffffffffff1673ffffffffffffffffffffffffffffffffffffffff16815260200190815260200160002060009054906101000a900460ff161515141515610b8957600080fd5b3373ffffffffffffffffffffffffffffffffffffffff163073ffffffffffffffffffffffffffffffffffffffff167f30adae56e824dbe94bc8ef71fb75f1f014546cf2913ebd822eb4464d2ffd31d160405160405180910390a35600a165627a7a72305820b8f2f898cbddf33cb939bb8f594c04c8b17f4a59674bb91c3cb9b1809bac9e620029",
  "source": "pragma solidity ^0.4.18;\n\ncontract smalobox {\n\tmapping (uint256 => mapping (address => bool)) public authorizedUsers;\n\tuint256 public index;\n\n\taddress public owner;\n\taddress public renter;\n\n\tuint256 public endTimestamp;\n\tuint256 public duration;\n\tuint256 minimumAmount = 0.001 ether;\n\n\tevent Rented(address indexed smartbox, address indexed _from, uint256 _value, uint256 _index);\n\tevent Opened(address indexed smartbox, address indexed _from);\n\tevent Closed(address indexed smartbox, address indexed _from);\n\tevent Returned(address indexed smartbox, address indexed _from);\n\tevent Authorized(address indexed smartbox, address indexed _from);\n\tevent Rated(address indexed smartbox, address indexed _renter, uint256 indexed _rating);\n\n\tfunction smalobox() public {\n\t\towner = msg.sender;\n\t}\n\n\tfunction rent() public payable {\n//\t\tcheck if the smart box is available\n\t\trequire (now > endTimestamp);\n\n//\t\tcheck ether transferred\n\t\trequire (msg.value >= minimumAmount);\n\n//\t\tcalculate the duration for the rent based on the ether transferred\n//\t\tminimumAmount corresponds one minute renting time\n\t\tduration = (msg.value / minimumAmount);\n\n//\t\tset the variable authorizedUsers and endTimestamp\n\t\tendTimestamp = now + duration * 60;\n\t\tindex += 1;\n\t\tauthorizedUsers[index][msg.sender] = true;\n\t\trenter = msg.sender;\n\n//\t\temit the event Rented\n\t\tRented(address(this), msg.sender, duration, index);\n\n//\t\tsmart contracts possesses the ether. The ether should be transferred to the smart box owner in the future.\n\t}\n\n\tfunction open() public {\n//\t\tcheck if permissioned\n\t\trequire (authorizedUsers[index][msg.sender] == true);\n\n\t\tOpened(address(this), msg.sender);\n\t}\n\n\tfunction close() public {\n\t\trequire (authorizedUsers[index][msg.sender] == true);\n\n\t\tClosed(address(this), msg.sender);\n\t}\n\n\tfunction withdraw() public {\n\t\trequire(owner == msg.sender);\n\t\trequire(address(this).balance > 0);\n\t\towner.transfer(address(this).balance);\n\t}\n\n\tfunction isUserAuthorized(address account) public view returns (bool) {\n\t\treturn authorizedUsers[index][account];\n\t}\n\n\tfunction returnBox() public {\n\t\trequire (authorizedUsers[index][msg.sender] == true || msg.sender == owner);\n\n\t\tdelete authorizedUsers[index][msg.sender];\n\t\tendTimestamp = 0;\n\t\tReturned(address(this), msg.sender);\n\t}\n\n\tfunction authorizeUser(address account) public {\n\t\trequire(renter == msg.sender);\n\t\tauthorizedUsers[index][account] = true;\n\t\tAuthorized(address(this), account);\n\t}\n\n\tfunction rate(uint16 _rating, uint256 _index) public {\n\t\trequire(authorizedUsers[_index][msg.sender]);\n\n\t\t// optional internal rating variable\n\n\t\tRated(address(this), msg.sender, _rating);\n\t}\n}\n",
  "sourcePath": "/Users/innogy-hao/dev/ethereumcamp/smartbox/contracts/smalobox.sol",
  "compiler": {
    "name": "solc",
    "version": "0.4.19+commit.c4cbbb05.Emscripten.clang"
  },
  "schemaVersion": "2.0.0",
  "updatedAt": "2018-03-29T10:16:49.695Z"
}