{
  "contractName": "Smartbox",
  "abi": [
    {
      "constant": true,
      "inputs": [],
      "name": "duration",
      "outputs": [
        {
          "name": "",
          "type": "uint256"
        }
      ],
      "payable": false,
      "stateMutability": "view",
      "type": "function"
    },
    {
      "constant": true,
      "inputs": [],
      "name": "index",
      "outputs": [
        {
          "name": "",
          "type": "uint256"
        }
      ],
      "payable": false,
      "stateMutability": "view",
      "type": "function"
    },
    {
      "constant": true,
      "inputs": [],
      "name": "owner",
      "outputs": [
        {
          "name": "",
          "type": "address"
        }
      ],
      "payable": false,
      "stateMutability": "view",
      "type": "function"
    },
    {
      "constant": true,
      "inputs": [
        {
          "name": "",
          "type": "uint256"
        },
        {
          "name": "",
          "type": "address"
        }
      ],
      "name": "authorizedUsers",
      "outputs": [
        {
          "name": "",
          "type": "bool"
        }
      ],
      "payable": false,
      "stateMutability": "view",
      "type": "function"
    },
    {
      "constant": true,
      "inputs": [],
      "name": "endTimestamp",
      "outputs": [
        {
          "name": "",
          "type": "uint256"
        }
      ],
      "payable": false,
      "stateMutability": "view",
      "type": "function"
    },
    {
      "inputs": [],
      "payable": false,
      "stateMutability": "nonpayable",
      "type": "constructor"
    },
    {
      "anonymous": false,
      "inputs": [
        {
          "indexed": true,
          "name": "smartbox",
          "type": "address"
        },
        {
          "indexed": true,
          "name": "_from",
          "type": "address"
        },
        {
          "indexed": false,
          "name": "_value",
          "type": "uint256"
        }
      ],
      "name": "Rented",
      "type": "event"
    },
    {
      "anonymous": false,
      "inputs": [
        {
          "indexed": true,
          "name": "smartbox",
          "type": "address"
        },
        {
          "indexed": true,
          "name": "_from",
          "type": "address"
        }
      ],
      "name": "Opened",
      "type": "event"
    },
    {
      "anonymous": false,
      "inputs": [
        {
          "indexed": true,
          "name": "smartbox",
          "type": "address"
        },
        {
          "indexed": true,
          "name": "_from",
          "type": "address"
        }
      ],
      "name": "Returned",
      "type": "event"
    },
    {
      "constant": false,
      "inputs": [],
      "name": "rent",
      "outputs": [],
      "payable": true,
      "stateMutability": "payable",
      "type": "function"
    },
    {
      "constant": false,
      "inputs": [],
      "name": "open",
      "outputs": [],
      "payable": false,
      "stateMutability": "nonpayable",
      "type": "function"
    },
    {
      "constant": false,
      "inputs": [],
      "name": "withdraw",
      "outputs": [],
      "payable": false,
      "stateMutability": "nonpayable",
      "type": "function"
    },
    {
      "constant": true,
      "inputs": [
        {
          "name": "account",
          "type": "address"
        }
      ],
      "name": "isUserAuthorized",
      "outputs": [
        {
          "name": "",
          "type": "bool"
        }
      ],
      "payable": false,
      "stateMutability": "view",
      "type": "function"
    },
    {
      "constant": false,
      "inputs": [],
      "name": "returnBox",
      "outputs": [],
      "payable": false,
      "stateMutability": "nonpayable",
      "type": "function"
    }
  ],
  "bytecode": "0x606060405266038d7ea4c68000600555341561001a57600080fd5b33600260006101000a81548173ffffffffffffffffffffffffffffffffffffffff021916908373ffffffffffffffffffffffffffffffffffffffff1602179055506107858061006a6000396000f3006060604052600436106100a4576000357c0100000000000000000000000000000000000000000000000000000000900463ffffffff1680630fb5a6b4146100a95780631c9a5ddf146100d25780632986c0e5146100e75780633ccfd60b1461011057806382996d9f14610125578063894e5f2d1461012f5780638da5cb5b14610180578063a5663a9f146101d5578063a85adeab1461022f578063fcfff16f14610258575b600080fd5b34156100b457600080fd5b6100bc61026d565b6040518082815260200191505060405180910390f35b34156100dd57600080fd5b6100e5610273565b005b34156100f257600080fd5b6100fa6103a0565b6040518082815260200191505060405180910390f35b341561011b57600080fd5b6101236103a6565b005b61012d6104a3565b005b341561013a57600080fd5b610166600480803573ffffffffffffffffffffffffffffffffffffffff169060200190919050506105c9565b604051808215151515815260200191505060405180910390f35b341561018b57600080fd5b610193610631565b604051808273ffffffffffffffffffffffffffffffffffffffff1673ffffffffffffffffffffffffffffffffffffffff16815260200191505060405180910390f35b34156101e057600080fd5b610215600480803590602001909190803573ffffffffffffffffffffffffffffffffffffffff16906020019091905050610657565b604051808215151515815260200191505060405180910390f35b341561023a57600080fd5b610242610686565b6040518082815260200191505060405180910390f35b341561026357600080fd5b61026b61068c565b005b60045481565b60011515600080600154815260200190815260200160002060003373ffffffffffffffffffffffffffffffffffffffff1673ffffffffffffffffffffffffffffffffffffffff16815260200190815260200160002060009054906101000a900460ff16151514806103315750600260009054906101000a900473ffffffffffffffffffffffffffffffffffffffff1673ffffffffffffffffffffffffffffffffffffffff163373ffffffffffffffffffffffffffffffffffffffff16145b151561033c57600080fd5b60006003819055503373ffffffffffffffffffffffffffffffffffffffff163073ffffffffffffffffffffffffffffffffffffffff167f68dad5ac279e871c27daa590e87ab6187ea8f679f17ad812e32bdc4b0d0d241e60405160405180910390a3565b60015481565b3373ffffffffffffffffffffffffffffffffffffffff16600260009054906101000a900473ffffffffffffffffffffffffffffffffffffffff1673ffffffffffffffffffffffffffffffffffffffff1614151561040257600080fd5b60003073ffffffffffffffffffffffffffffffffffffffff163111151561042857600080fd5b600260009054906101000a900473ffffffffffffffffffffffffffffffffffffffff1673ffffffffffffffffffffffffffffffffffffffff166108fc3073ffffffffffffffffffffffffffffffffffffffff16319081150290604051600060405180830381858888f1935050505015156104a157600080fd5b565b600354421115156104b357600080fd5b60055434101515156104c457600080fd5b600554348115156104d157fe5b04600481905550603c600454024201600381905550600180600082825401925050819055506001600080600154815260200190815260200160002060003373ffffffffffffffffffffffffffffffffffffffff1673ffffffffffffffffffffffffffffffffffffffff16815260200190815260200160002060006101000a81548160ff0219169083151502179055503373ffffffffffffffffffffffffffffffffffffffff163073ffffffffffffffffffffffffffffffffffffffff167fac75316accb77b26ecc143a55be4dfbc1b88f937c0d1234f7a3aad8b4d55d22d6004546040518082815260200191505060405180910390a3565b6000806000600154815260200190815260200160002060008373ffffffffffffffffffffffffffffffffffffffff1673ffffffffffffffffffffffffffffffffffffffff16815260200190815260200160002060009054906101000a900460ff169050919050565b600260009054906101000a900473ffffffffffffffffffffffffffffffffffffffff1681565b60006020528160005260406000206020528060005260406000206000915091509054906101000a900460ff1681565b60035481565b60011515600080600154815260200190815260200160002060003373ffffffffffffffffffffffffffffffffffffffff1673ffffffffffffffffffffffffffffffffffffffff16815260200190815260200160002060009054906101000a900460ff1615151415156106fd57600080fd5b3373ffffffffffffffffffffffffffffffffffffffff163073ffffffffffffffffffffffffffffffffffffffff167f30adae56e824dbe94bc8ef71fb75f1f014546cf2913ebd822eb4464d2ffd31d160405160405180910390a35600a165627a7a72305820060c4e3a2807a1e268fc676cf1cb9b90746139efa6fb2fec730a39c042d7d1590029",
  "source": "pragma solidity ^0.4.18;\n\ncontract Smartbox {\n\tmapping (uint256 => mapping (address => bool)) public authorizedUsers;\n\tuint256 public index;\n\n\taddress public owner;\n\n\tuint256 public endTimestamp;\n\tuint256 public duration;\n\tuint256 minimumAmount = 0.001 ether;\n\n\tevent Rented(address indexed smartbox, address indexed _from, uint256 _value);\n\tevent Opened(address indexed smartbox, address indexed _from);\n\tevent Returned(address indexed smartbox, address indexed _from);\n\n\tfunction Smartbox() public {\n\t\towner = msg.sender;\n\t}\n\n\tfunction rent() public payable {\n//\t\tcheck if the smart box is available\n\t\trequire (now > endTimestamp);\n\n//\t\tcheck ether transferred\n\t\trequire (msg.value >= minimumAmount);\n\n//\t\tcalculate the duration for the rent based on the ether transferred\n//\t\tminimumAmount corresponds one minute renting time\n\t\tduration = (msg.value / minimumAmount);\n\n//\t\tset the variable authorizedUsers and endTimestamp\n\t\tendTimestamp = now + duration * 60;\n\t\tindex += 1;\n\t\tauthorizedUsers[index][msg.sender] = true;\n\n//\t\temit the event Rented\n\t\tRented(address(this), msg.sender, duration);\n\n//\t\tsmart contracts possesses the ether. The ether should be transferred to the smart box owner in the future.\n\t}\n\n\tfunction open() public {\n//\t\tcheck if permissioned\n\t\trequire (authorizedUsers[index][msg.sender] == true);\n\n\t\tOpened(address(this), msg.sender);\n\t}\n\n\tfunction withdraw() public {\n\t\trequire(owner == msg.sender);\n\t\trequire(address(this).balance > 0);\n\t\towner.transfer(address(this).balance);\n\t}\n\n\tfunction isUserAuthorized(address account) public view returns (bool) {\n\t\treturn authorizedUsers[index][account];\n\t}\n\n\tfunction returnBox() public {\n\t\trequire (authorizedUsers[index][msg.sender] == true || msg.sender == owner);\n\n\t\tendTimestamp = 0;\n\t\tReturned(address(this), msg.sender);\n\t}\n}\n",
  "sourcePath": "/Users/innogy-hao/dev/ethereumcamp/smartbox/contracts/Smartbox.sol",
  "compiler": {
    "name": "solc",
    "version": "0.4.19+commit.c4cbbb05.Emscripten.clang"
  },
  "schemaVersion": "2.0.0",
  "updatedAt": "2018-03-27T13:24:21.442Z"
}