{
  "contractName": "Smartbox",
  "abi": [
    {
      "constant": true,
      "inputs": [],
      "name": "duration",
      "outputs": [
        {
          "name": "",
          "type": "uint256"
        }
      ],
      "payable": false,
      "stateMutability": "view",
      "type": "function"
    },
    {
      "constant": true,
      "inputs": [],
      "name": "index",
      "outputs": [
        {
          "name": "",
          "type": "uint256"
        }
      ],
      "payable": false,
      "stateMutability": "view",
      "type": "function"
    },
    {
      "constant": true,
      "inputs": [],
      "name": "renter",
      "outputs": [
        {
          "name": "",
          "type": "address"
        }
      ],
      "payable": false,
      "stateMutability": "view",
      "type": "function"
    },
    {
      "constant": true,
      "inputs": [],
      "name": "owner",
      "outputs": [
        {
          "name": "",
          "type": "address"
        }
      ],
      "payable": false,
      "stateMutability": "view",
      "type": "function"
    },
    {
      "constant": true,
      "inputs": [
        {
          "name": "",
          "type": "uint256"
        },
        {
          "name": "",
          "type": "address"
        }
      ],
      "name": "authorizedUsers",
      "outputs": [
        {
          "name": "",
          "type": "bool"
        }
      ],
      "payable": false,
      "stateMutability": "view",
      "type": "function"
    },
    {
      "constant": true,
      "inputs": [],
      "name": "endTimestamp",
      "outputs": [
        {
          "name": "",
          "type": "uint256"
        }
      ],
      "payable": false,
      "stateMutability": "view",
      "type": "function"
    },
    {
      "inputs": [],
      "payable": false,
      "stateMutability": "nonpayable",
      "type": "constructor"
    },
    {
      "anonymous": false,
      "inputs": [
        {
          "indexed": true,
          "name": "smartbox",
          "type": "address"
        },
        {
          "indexed": true,
          "name": "_from",
          "type": "address"
        },
        {
          "indexed": false,
          "name": "_value",
          "type": "uint256"
        }
      ],
      "name": "Rented",
      "type": "event"
    },
    {
      "anonymous": false,
      "inputs": [
        {
          "indexed": true,
          "name": "smartbox",
          "type": "address"
        },
        {
          "indexed": true,
          "name": "_from",
          "type": "address"
        }
      ],
      "name": "Opened",
      "type": "event"
    },
    {
      "anonymous": false,
      "inputs": [
        {
          "indexed": true,
          "name": "smartbox",
          "type": "address"
        },
        {
          "indexed": true,
          "name": "_from",
          "type": "address"
        }
      ],
      "name": "Returned",
      "type": "event"
    },
    {
      "anonymous": false,
      "inputs": [
        {
          "indexed": true,
          "name": "smartbox",
          "type": "address"
        },
        {
          "indexed": true,
          "name": "_from",
          "type": "address"
        }
      ],
      "name": "Authorized",
      "type": "event"
    },
    {
      "constant": false,
      "inputs": [],
      "name": "rent",
      "outputs": [],
      "payable": true,
      "stateMutability": "payable",
      "type": "function"
    },
    {
      "constant": false,
      "inputs": [],
      "name": "open",
      "outputs": [],
      "payable": false,
      "stateMutability": "nonpayable",
      "type": "function"
    },
    {
      "constant": false,
      "inputs": [],
      "name": "withdraw",
      "outputs": [],
      "payable": false,
      "stateMutability": "nonpayable",
      "type": "function"
    },
    {
      "constant": true,
      "inputs": [
        {
          "name": "account",
          "type": "address"
        }
      ],
      "name": "isUserAuthorized",
      "outputs": [
        {
          "name": "",
          "type": "bool"
        }
      ],
      "payable": false,
      "stateMutability": "view",
      "type": "function"
    },
    {
      "constant": false,
      "inputs": [],
      "name": "returnBox",
      "outputs": [],
      "payable": false,
      "stateMutability": "nonpayable",
      "type": "function"
    },
    {
      "constant": false,
      "inputs": [
        {
          "name": "account",
          "type": "address"
        }
      ],
      "name": "authorizeUser",
      "outputs": [],
      "payable": false,
      "stateMutability": "nonpayable",
      "type": "function"
    }
  ],
  "bytecode": "0x606060405266038d7ea4c68000600655341561001a57600080fd5b33600260006101000a81548173ffffffffffffffffffffffffffffffffffffffff021916908373ffffffffffffffffffffffffffffffffffffffff160217905550610a148061006a6000396000f3006060604052600436106100ba576000357c0100000000000000000000000000000000000000000000000000000000900463ffffffff1680630fb5a6b4146100bf5780631c9a5ddf146100e85780632986c0e5146100fd5780632e88ab0b146101265780633ccfd60b1461017b57806367c2a3601461019057806382996d9f146101c9578063894e5f2d146101d35780638da5cb5b14610224578063a5663a9f14610279578063a85adeab146102d3578063fcfff16f146102fc575b600080fd5b34156100ca57600080fd5b6100d2610311565b6040518082815260200191505060405180910390f35b34156100f357600080fd5b6100fb610317565b005b341561010857600080fd5b6101106104a5565b6040518082815260200191505060405180910390f35b341561013157600080fd5b6101396104ab565b604051808273ffffffffffffffffffffffffffffffffffffffff1673ffffffffffffffffffffffffffffffffffffffff16815260200191505060405180910390f35b341561018657600080fd5b61018e6104d1565b005b341561019b57600080fd5b6101c7600480803573ffffffffffffffffffffffffffffffffffffffff169060200190919050506105ce565b005b6101d16106f1565b005b34156101de57600080fd5b61020a600480803573ffffffffffffffffffffffffffffffffffffffff16906020019091905050610858565b604051808215151515815260200191505060405180910390f35b341561022f57600080fd5b6102376108c0565b604051808273ffffffffffffffffffffffffffffffffffffffff1673ffffffffffffffffffffffffffffffffffffffff16815260200191505060405180910390f35b341561028457600080fd5b6102b9600480803590602001909190803573ffffffffffffffffffffffffffffffffffffffff169060200190919050506108e6565b604051808215151515815260200191505060405180910390f35b34156102de57600080fd5b6102e6610915565b6040518082815260200191505060405180910390f35b341561030757600080fd5b61030f61091b565b005b60055481565b60011515600080600154815260200190815260200160002060003373ffffffffffffffffffffffffffffffffffffffff1673ffffffffffffffffffffffffffffffffffffffff16815260200190815260200160002060009054906101000a900460ff16151514806103d55750600260009054906101000a900473ffffffffffffffffffffffffffffffffffffffff1673ffffffffffffffffffffffffffffffffffffffff163373ffffffffffffffffffffffffffffffffffffffff16145b15156103e057600080fd5b600080600154815260200190815260200160002060003373ffffffffffffffffffffffffffffffffffffffff1673ffffffffffffffffffffffffffffffffffffffff16815260200190815260200160002060006101000a81549060ff021916905560006004819055503373ffffffffffffffffffffffffffffffffffffffff163073ffffffffffffffffffffffffffffffffffffffff167f68dad5ac279e871c27daa590e87ab6187ea8f679f17ad812e32bdc4b0d0d241e60405160405180910390a3565b60015481565b600360009054906101000a900473ffffffffffffffffffffffffffffffffffffffff1681565b3373ffffffffffffffffffffffffffffffffffffffff16600260009054906101000a900473ffffffffffffffffffffffffffffffffffffffff1673ffffffffffffffffffffffffffffffffffffffff1614151561052d57600080fd5b60003073ffffffffffffffffffffffffffffffffffffffff163111151561055357600080fd5b600260009054906101000a900473ffffffffffffffffffffffffffffffffffffffff1673ffffffffffffffffffffffffffffffffffffffff166108fc3073ffffffffffffffffffffffffffffffffffffffff16319081150290604051600060405180830381858888f1935050505015156105cc57600080fd5b565b3373ffffffffffffffffffffffffffffffffffffffff16600360009054906101000a900473ffffffffffffffffffffffffffffffffffffffff1673ffffffffffffffffffffffffffffffffffffffff1614151561062a57600080fd5b6001600080600154815260200190815260200160002060008373ffffffffffffffffffffffffffffffffffffffff1673ffffffffffffffffffffffffffffffffffffffff16815260200190815260200160002060006101000a81548160ff0219169083151502179055508073ffffffffffffffffffffffffffffffffffffffff163073ffffffffffffffffffffffffffffffffffffffff167ff5a7f4fb8a92356e8c8c4ae7ac3589908381450500a7e2fd08c95600021ee88960405160405180910390a350565b6004544211151561070157600080fd5b600654341015151561071257600080fd5b6006543481151561071f57fe5b04600581905550603c600554024201600481905550600180600082825401925050819055506001600080600154815260200190815260200160002060003373ffffffffffffffffffffffffffffffffffffffff1673ffffffffffffffffffffffffffffffffffffffff16815260200190815260200160002060006101000a81548160ff02191690831515021790555033600360006101000a81548173ffffffffffffffffffffffffffffffffffffffff021916908373ffffffffffffffffffffffffffffffffffffffff1602179055503373ffffffffffffffffffffffffffffffffffffffff163073ffffffffffffffffffffffffffffffffffffffff167fac75316accb77b26ecc143a55be4dfbc1b88f937c0d1234f7a3aad8b4d55d22d6005546040518082815260200191505060405180910390a3565b6000806000600154815260200190815260200160002060008373ffffffffffffffffffffffffffffffffffffffff1673ffffffffffffffffffffffffffffffffffffffff16815260200190815260200160002060009054906101000a900460ff169050919050565b600260009054906101000a900473ffffffffffffffffffffffffffffffffffffffff1681565b60006020528160005260406000206020528060005260406000206000915091509054906101000a900460ff1681565b60045481565b60011515600080600154815260200190815260200160002060003373ffffffffffffffffffffffffffffffffffffffff1673ffffffffffffffffffffffffffffffffffffffff16815260200190815260200160002060009054906101000a900460ff16151514151561098c57600080fd5b3373ffffffffffffffffffffffffffffffffffffffff163073ffffffffffffffffffffffffffffffffffffffff167f30adae56e824dbe94bc8ef71fb75f1f014546cf2913ebd822eb4464d2ffd31d160405160405180910390a35600a165627a7a72305820d4abfd1767917a56cd14e07a3d53593f96fdbbcde95b6c73840eeaebfebbd44d0029",
  "source": "pragma solidity ^0.4.18;\n\ncontract Smartbox {\n\tmapping (uint256 => mapping (address => bool)) public authorizedUsers;\n\tuint256 public index;\n\n\taddress public owner;\n\taddress public renter;\n\n\tuint256 public endTimestamp;\n\tuint256 public duration;\n\tuint256 minimumAmount = 0.001 ether;\n\n\tevent Rented(address indexed smartbox, address indexed _from, uint256 _value);\n\tevent Opened(address indexed smartbox, address indexed _from);\n\tevent Returned(address indexed smartbox, address indexed _from);\n\tevent Authorized(address indexed smartbox, address indexed _from);\n\n\tfunction Smartbox() public {\n\t\towner = msg.sender;\n\t}\n\n\tfunction rent() public payable {\n//\t\tcheck if the smart box is available\n\t\trequire (now > endTimestamp);\n\n//\t\tcheck ether transferred\n\t\trequire (msg.value >= minimumAmount);\n\n//\t\tcalculate the duration for the rent based on the ether transferred\n//\t\tminimumAmount corresponds one minute renting time\n\t\tduration = (msg.value / minimumAmount);\n\n//\t\tset the variable authorizedUsers and endTimestamp\n\t\tendTimestamp = now + duration * 60;\n\t\tindex += 1;\n\t\tauthorizedUsers[index][msg.sender] = true;\n\t\trenter = msg.sender;\n\n//\t\temit the event Rented\n\t\tRented(address(this), msg.sender, duration);\n\n//\t\tsmart contracts possesses the ether. The ether should be transferred to the smart box owner in the future.\n\t}\n\n\tfunction open() public {\n//\t\tcheck if permissioned\n\t\trequire (authorizedUsers[index][msg.sender] == true);\n\n\t\tOpened(address(this), msg.sender);\n\t}\n\n\tfunction withdraw() public {\n\t\trequire(owner == msg.sender);\n\t\trequire(address(this).balance > 0);\n\t\towner.transfer(address(this).balance);\n\t}\n\n\tfunction isUserAuthorized(address account) public view returns (bool) {\n\t\treturn authorizedUsers[index][account];\n\t}\n\n\tfunction returnBox() public {\n\t\trequire (authorizedUsers[index][msg.sender] == true || msg.sender == owner);\n\n\t\tdelete authorizedUsers[index][msg.sender];\n\t\tendTimestamp = 0;\n\t\tReturned(address(this), msg.sender);\n\t}\n\n\tfunction authorizeUser(address account) public {\n\t\trequire(renter == msg.sender);\n\t\tauthorizedUsers[index][account] = true;\n\t\tAuthorized(address(this), account);\n\t}\n}\n",
  "sourcePath": "/Users/innogy-hao/dev/ethereumcamp/smartbox/contracts/Smartbox.sol",
  "compiler": {
    "name": "solc",
    "version": "0.4.19+commit.c4cbbb05.Emscripten.clang"
  },
  "schemaVersion": "2.0.0",
  "updatedAt": "2018-03-27T17:12:34.210Z"
}